{
  "contracts/Vesting.sol": {
    "Vesting": {
      "abi": [
        {
          "inputs": [
            {
              "internalType": "address",
              "name": "_token",
              "type": "address"
            },
            {
              "internalType": "uint256",
              "name": "_firstRelease",
              "type": "uint256"
            },
            {
              "internalType": "uint256",
              "name": "_startTime",
              "type": "uint256"
            },
            {
              "internalType": "uint256",
              "name": "_totalPeriod",
              "type": "uint256"
            },
            {
              "internalType": "uint256",
              "name": "_timePerPeriod",
              "type": "uint256"
            },
            {
              "internalType": "uint256",
              "name": "_cliff",
              "type": "uint256"
            },
            {
              "internalType": "uint256",
              "name": "_totalTokens",
              "type": "uint256"
            },
            {
              "internalType": "address",
              "name": "_admin",
              "type": "address"
            }
          ],
          "stateMutability": "nonpayable",
          "type": "constructor"
        },
        {
          "inputs": [
            {
              "internalType": "address",
              "name": "user",
              "type": "address"
            },
            {
              "internalType": "uint256",
              "name": "amount",
              "type": "uint256"
            }
          ],
          "name": "addUserToWhitelist",
          "outputs": [],
          "stateMutability": "nonpayable",
          "type": "function"
        },
        {
          "inputs": [],
          "name": "claimToken",
          "outputs": [],
          "stateMutability": "nonpayable",
          "type": "function"
        },
        {
          "inputs": [
            {
              "internalType": "uint256",
              "name": "currentTime",
              "type": "uint256"
            },
            {
              "components": [
                {
                  "internalType": "uint256",
                  "name": "amount",
                  "type": "uint256"
                },
                {
                  "internalType": "uint256",
                  "name": "tokenClaimed",
                  "type": "uint256"
                }
              ],
              "internalType": "struct Vesting.UserInfo",
              "name": "user",
              "type": "tuple"
            }
          ],
          "name": "currentClaimableAmount",
          "outputs": [
            {
              "internalType": "uint256",
              "name": "",
              "type": "uint256"
            }
          ],
          "stateMutability": "view",
          "type": "function"
        },
        {
          "inputs": [
            {
              "internalType": "address",
              "name": "user",
              "type": "address"
            }
          ],
          "name": "removeUserFromWhitelist",
          "outputs": [],
          "stateMutability": "nonpayable",
          "type": "function"
        },
        {
          "inputs": [],
          "name": "vestingFund",
          "outputs": [],
          "stateMutability": "nonpayable",
          "type": "function"
        }
      ],
      "evm": {
        "bytecode": {
          "linkReferences": {},
          "object": "60806040523480156200001157600080fd5b5060405162000c7938038062000c7983398181016040528101906200003791906200011f565b87600160006101000a81548173ffffffffffffffffffffffffffffffffffffffff021916908373ffffffffffffffffffffffffffffffffffffffff16021790555086600281905550856003819055508460048190555083600581905550826006819055508160078190555080600860006101000a81548173ffffffffffffffffffffffffffffffffffffffff021916908373ffffffffffffffffffffffffffffffffffffffff160217905550505050505050505062000254565b600081519050620001028162000220565b92915050565b60008151905062000119816200023a565b92915050565b600080600080600080600080610100898b0312156200013d57600080fd5b60006200014d8b828c01620000f1565b9850506020620001608b828c0162000108565b9750506040620001738b828c0162000108565b9650506060620001868b828c0162000108565b9550506080620001998b828c0162000108565b94505060a0620001ac8b828c0162000108565b93505060c0620001bf8b828c0162000108565b92505060e0620001d28b828c01620000f1565b9150509295985092959890939650565b6000620001ef82620001f6565b9050919050565b600073ffffffffffffffffffffffffffffffffffffffff82169050919050565b6000819050919050565b6200022b81620001e2565b81146200023757600080fd5b50565b620002458162000216565b81146200025157600080fd5b50565b610a1580620002646000396000f3fe608060405234801561001057600080fd5b50600436106100575760003560e01c80630acecda51461005c5780630b7459eb1461008c5780634451d89f14610096578063f9902bb1146100a0578063fc0f349b146100bc575b600080fd5b610076600480360381019061007191906105dc565b6100d8565b604051610083919061072d565b60405180910390f35b6100946101ab565b005b61009e610366565b005b6100ba60048036038101906100b59190610577565b610368565b005b6100d660048036038101906100d191906105a0565b610416565b005b6000806003548410156100ee57600090506101a1565b6000806002546064866000015161010591906107f6565b61010f9190610827565b905060065460035461012191906107a0565b8610156101305780915061018c565b600160055460065460035461014591906107a0565b886101509190610881565b61015a91906107f6565b61016491906107a0565b8186600001516101749190610881565b61017e9190610827565b8161018991906107a0565b91505b84602001518261019c9190610881565b925050505b8091505092915050565b600860009054906101000a900473ffffffffffffffffffffffffffffffffffffffff1673ffffffffffffffffffffffffffffffffffffffff163373ffffffffffffffffffffffffffffffffffffffff161461020557600080fd5b6000600160009054906101000a900473ffffffffffffffffffffffffffffffffffffffff1673ffffffffffffffffffffffffffffffffffffffff16306007546040516024016102559291906106e4565b6040516020818303038152906040527fa9059cbb000000000000000000000000000000000000000000000000000000007bffffffffffffffffffffffffffffffffffffffffffffffffffffffff19166020820180517bffffffffffffffffffffffffffffffffffffffffffffffffffffffff83818316178352505050506040516102df91906106cd565b600060405180830381855af49150503d806000811461031a576040519150601f19603f3d011682016040523d82523d6000602084013e61031f565b606091505b5050905080610363576040517f08c379a000000000000000000000000000000000000000000000000000000000815260040161035a9061070d565b60405180910390fd5b50565b565b600860009054906101000a900473ffffffffffffffffffffffffffffffffffffffff1673ffffffffffffffffffffffffffffffffffffffff163373ffffffffffffffffffffffffffffffffffffffff16146103c257600080fd5b6000808273ffffffffffffffffffffffffffffffffffffffff1673ffffffffffffffffffffffffffffffffffffffff1681526020019081526020016000206000808201600090556001820160009055505050565b600860009054906101000a900473ffffffffffffffffffffffffffffffffffffffff1673ffffffffffffffffffffffffffffffffffffffff163373ffffffffffffffffffffffffffffffffffffffff161461047057600080fd5b806000808473ffffffffffffffffffffffffffffffffffffffff1673ffffffffffffffffffffffffffffffffffffffff1681526020019081526020016000206000018190555060008060008473ffffffffffffffffffffffffffffffffffffffff1673ffffffffffffffffffffffffffffffffffffffff168152602001908152602001600020600101819055505050565b600081359050610510816109b1565b92915050565b60006040828403121561052857600080fd5b6105326040610748565b9050600061054284828501610562565b600083015250602061055684828501610562565b60208301525092915050565b600081359050610571816109c8565b92915050565b60006020828403121561058957600080fd5b600061059784828501610501565b91505092915050565b600080604083850312156105b357600080fd5b60006105c185828601610501565b92505060206105d285828601610562565b9150509250929050565b600080606083850312156105ef57600080fd5b60006105fd85828601610562565b925050602061060e85828601610516565b9150509250929050565b610621816108b5565b82525050565b600061063282610779565b61063c8185610784565b935061064c8185602086016108f1565b80840191505092915050565b600061066560248361078f565b91507f44656c656761746543616c6c20696e2076657374696e6746756e64282920666160008301527f696c6564000000000000000000000000000000000000000000000000000000006020830152604082019050919050565b6106c7816108e7565b82525050565b60006106d98284610627565b915081905092915050565b60006040820190506106f96000830185610618565b61070660208301846106be565b9392505050565b6000602082019050818103600083015261072681610658565b9050919050565b600060208201905061074260008301846106be565b92915050565b6000604051905081810181811067ffffffffffffffff8211171561076f5761076e610982565b5b8060405250919050565b600081519050919050565b600081905092915050565b600082825260208201905092915050565b60006107ab826108e7565b91506107b6836108e7565b9250827fffffffffffffffffffffffffffffffffffffffffffffffffffffffffffffffff038211156107eb576107ea610924565b5b828201905092915050565b6000610801826108e7565b915061080c836108e7565b92508261081c5761081b610953565b5b828204905092915050565b6000610832826108e7565b915061083d836108e7565b9250817fffffffffffffffffffffffffffffffffffffffffffffffffffffffffffffffff048311821515161561087657610875610924565b5b828202905092915050565b600061088c826108e7565b9150610897836108e7565b9250828210156108aa576108a9610924565b5b828203905092915050565b60006108c0826108c7565b9050919050565b600073ffffffffffffffffffffffffffffffffffffffff82169050919050565b6000819050919050565b60005b8381101561090f5780820151818401526020810190506108f4565b8381111561091e576000848401525b50505050565b7f4e487b7100000000000000000000000000000000000000000000000000000000600052601160045260246000fd5b7f4e487b7100000000000000000000000000000000000000000000000000000000600052601260045260246000fd5b7f4e487b7100000000000000000000000000000000000000000000000000000000600052604160045260246000fd5b6109ba816108b5565b81146109c557600080fd5b50565b6109d1816108e7565b81146109dc57600080fd5b5056fea2646970667358221220e7569dc24fac27dd6f11e74d4ff70af213404bc64a670640e76d8ad7369b851264736f6c63430008000033",
          "opcodes": "PUSH1 0x80 PUSH1 0x40 MSTORE CALLVALUE DUP1 ISZERO PUSH3 0x11 JUMPI PUSH1 0x0 DUP1 REVERT JUMPDEST POP PUSH1 0x40 MLOAD PUSH3 0xC79 CODESIZE SUB DUP1 PUSH3 0xC79 DUP4 CODECOPY DUP2 DUP2 ADD PUSH1 0x40 MSTORE DUP2 ADD SWAP1 PUSH3 0x37 SWAP2 SWAP1 PUSH3 0x11F JUMP JUMPDEST DUP8 PUSH1 0x1 PUSH1 0x0 PUSH2 0x100 EXP DUP2 SLOAD DUP2 PUSH20 0xFFFFFFFFFFFFFFFFFFFFFFFFFFFFFFFFFFFFFFFF MUL NOT AND SWAP1 DUP4 PUSH20 0xFFFFFFFFFFFFFFFFFFFFFFFFFFFFFFFFFFFFFFFF AND MUL OR SWAP1 SSTORE POP DUP7 PUSH1 0x2 DUP2 SWAP1 SSTORE POP DUP6 PUSH1 0x3 DUP2 SWAP1 SSTORE POP DUP5 PUSH1 0x4 DUP2 SWAP1 SSTORE POP DUP4 PUSH1 0x5 DUP2 SWAP1 SSTORE POP DUP3 PUSH1 0x6 DUP2 SWAP1 SSTORE POP DUP2 PUSH1 0x7 DUP2 SWAP1 SSTORE POP DUP1 PUSH1 0x8 PUSH1 0x0 PUSH2 0x100 EXP DUP2 SLOAD DUP2 PUSH20 0xFFFFFFFFFFFFFFFFFFFFFFFFFFFFFFFFFFFFFFFF MUL NOT AND SWAP1 DUP4 PUSH20 0xFFFFFFFFFFFFFFFFFFFFFFFFFFFFFFFFFFFFFFFF AND MUL OR SWAP1 SSTORE POP POP POP POP POP POP POP POP POP PUSH3 0x254 JUMP JUMPDEST PUSH1 0x0 DUP2 MLOAD SWAP1 POP PUSH3 0x102 DUP2 PUSH3 0x220 JUMP JUMPDEST SWAP3 SWAP2 POP POP JUMP JUMPDEST PUSH1 0x0 DUP2 MLOAD SWAP1 POP PUSH3 0x119 DUP2 PUSH3 0x23A JUMP JUMPDEST SWAP3 SWAP2 POP POP JUMP JUMPDEST PUSH1 0x0 DUP1 PUSH1 0x0 DUP1 PUSH1 0x0 DUP1 PUSH1 0x0 DUP1 PUSH2 0x100 DUP10 DUP12 SUB SLT ISZERO PUSH3 0x13D JUMPI PUSH1 0x0 DUP1 REVERT JUMPDEST PUSH1 0x0 PUSH3 0x14D DUP12 DUP3 DUP13 ADD PUSH3 0xF1 JUMP JUMPDEST SWAP9 POP POP PUSH1 0x20 PUSH3 0x160 DUP12 DUP3 DUP13 ADD PUSH3 0x108 JUMP JUMPDEST SWAP8 POP POP PUSH1 0x40 PUSH3 0x173 DUP12 DUP3 DUP13 ADD PUSH3 0x108 JUMP JUMPDEST SWAP7 POP POP PUSH1 0x60 PUSH3 0x186 DUP12 DUP3 DUP13 ADD PUSH3 0x108 JUMP JUMPDEST SWAP6 POP POP PUSH1 0x80 PUSH3 0x199 DUP12 DUP3 DUP13 ADD PUSH3 0x108 JUMP JUMPDEST SWAP5 POP POP PUSH1 0xA0 PUSH3 0x1AC DUP12 DUP3 DUP13 ADD PUSH3 0x108 JUMP JUMPDEST SWAP4 POP POP PUSH1 0xC0 PUSH3 0x1BF DUP12 DUP3 DUP13 ADD PUSH3 0x108 JUMP JUMPDEST SWAP3 POP POP PUSH1 0xE0 PUSH3 0x1D2 DUP12 DUP3 DUP13 ADD PUSH3 0xF1 JUMP JUMPDEST SWAP2 POP POP SWAP3 SWAP6 SWAP9 POP SWAP3 SWAP6 SWAP9 SWAP1 SWAP4 SWAP7 POP JUMP JUMPDEST PUSH1 0x0 PUSH3 0x1EF DUP3 PUSH3 0x1F6 JUMP JUMPDEST SWAP1 POP SWAP2 SWAP1 POP JUMP JUMPDEST PUSH1 0x0 PUSH20 0xFFFFFFFFFFFFFFFFFFFFFFFFFFFFFFFFFFFFFFFF DUP3 AND SWAP1 POP SWAP2 SWAP1 POP JUMP JUMPDEST PUSH1 0x0 DUP2 SWAP1 POP SWAP2 SWAP1 POP JUMP JUMPDEST PUSH3 0x22B DUP2 PUSH3 0x1E2 JUMP JUMPDEST DUP2 EQ PUSH3 0x237 JUMPI PUSH1 0x0 DUP1 REVERT JUMPDEST POP JUMP JUMPDEST PUSH3 0x245 DUP2 PUSH3 0x216 JUMP JUMPDEST DUP2 EQ PUSH3 0x251 JUMPI PUSH1 0x0 DUP1 REVERT JUMPDEST POP JUMP JUMPDEST PUSH2 0xA15 DUP1 PUSH3 0x264 PUSH1 0x0 CODECOPY PUSH1 0x0 RETURN INVALID PUSH1 0x80 PUSH1 0x40 MSTORE CALLVALUE DUP1 ISZERO PUSH2 0x10 JUMPI PUSH1 0x0 DUP1 REVERT JUMPDEST POP PUSH1 0x4 CALLDATASIZE LT PUSH2 0x57 JUMPI PUSH1 0x0 CALLDATALOAD PUSH1 0xE0 SHR DUP1 PUSH4 0xACECDA5 EQ PUSH2 0x5C JUMPI DUP1 PUSH4 0xB7459EB EQ PUSH2 0x8C JUMPI DUP1 PUSH4 0x4451D89F EQ PUSH2 0x96 JUMPI DUP1 PUSH4 0xF9902BB1 EQ PUSH2 0xA0 JUMPI DUP1 PUSH4 0xFC0F349B EQ PUSH2 0xBC JUMPI JUMPDEST PUSH1 0x0 DUP1 REVERT JUMPDEST PUSH2 0x76 PUSH1 0x4 DUP1 CALLDATASIZE SUB DUP2 ADD SWAP1 PUSH2 0x71 SWAP2 SWAP1 PUSH2 0x5DC JUMP JUMPDEST PUSH2 0xD8 JUMP JUMPDEST PUSH1 0x40 MLOAD PUSH2 0x83 SWAP2 SWAP1 PUSH2 0x72D JUMP JUMPDEST PUSH1 0x40 MLOAD DUP1 SWAP2 SUB SWAP1 RETURN JUMPDEST PUSH2 0x94 PUSH2 0x1AB JUMP JUMPDEST STOP JUMPDEST PUSH2 0x9E PUSH2 0x366 JUMP JUMPDEST STOP JUMPDEST PUSH2 0xBA PUSH1 0x4 DUP1 CALLDATASIZE SUB DUP2 ADD SWAP1 PUSH2 0xB5 SWAP2 SWAP1 PUSH2 0x577 JUMP JUMPDEST PUSH2 0x368 JUMP JUMPDEST STOP JUMPDEST PUSH2 0xD6 PUSH1 0x4 DUP1 CALLDATASIZE SUB DUP2 ADD SWAP1 PUSH2 0xD1 SWAP2 SWAP1 PUSH2 0x5A0 JUMP JUMPDEST PUSH2 0x416 JUMP JUMPDEST STOP JUMPDEST PUSH1 0x0 DUP1 PUSH1 0x3 SLOAD DUP5 LT ISZERO PUSH2 0xEE JUMPI PUSH1 0x0 SWAP1 POP PUSH2 0x1A1 JUMP JUMPDEST PUSH1 0x0 DUP1 PUSH1 0x2 SLOAD PUSH1 0x64 DUP7 PUSH1 0x0 ADD MLOAD PUSH2 0x105 SWAP2 SWAP1 PUSH2 0x7F6 JUMP JUMPDEST PUSH2 0x10F SWAP2 SWAP1 PUSH2 0x827 JUMP JUMPDEST SWAP1 POP PUSH1 0x6 SLOAD PUSH1 0x3 SLOAD PUSH2 0x121 SWAP2 SWAP1 PUSH2 0x7A0 JUMP JUMPDEST DUP7 LT ISZERO PUSH2 0x130 JUMPI DUP1 SWAP2 POP PUSH2 0x18C JUMP JUMPDEST PUSH1 0x1 PUSH1 0x5 SLOAD PUSH1 0x6 SLOAD PUSH1 0x3 SLOAD PUSH2 0x145 SWAP2 SWAP1 PUSH2 0x7A0 JUMP JUMPDEST DUP9 PUSH2 0x150 SWAP2 SWAP1 PUSH2 0x881 JUMP JUMPDEST PUSH2 0x15A SWAP2 SWAP1 PUSH2 0x7F6 JUMP JUMPDEST PUSH2 0x164 SWAP2 SWAP1 PUSH2 0x7A0 JUMP JUMPDEST DUP2 DUP7 PUSH1 0x0 ADD MLOAD PUSH2 0x174 SWAP2 SWAP1 PUSH2 0x881 JUMP JUMPDEST PUSH2 0x17E SWAP2 SWAP1 PUSH2 0x827 JUMP JUMPDEST DUP2 PUSH2 0x189 SWAP2 SWAP1 PUSH2 0x7A0 JUMP JUMPDEST SWAP2 POP JUMPDEST DUP5 PUSH1 0x20 ADD MLOAD DUP3 PUSH2 0x19C SWAP2 SWAP1 PUSH2 0x881 JUMP JUMPDEST SWAP3 POP POP POP JUMPDEST DUP1 SWAP2 POP POP SWAP3 SWAP2 POP POP JUMP JUMPDEST PUSH1 0x8 PUSH1 0x0 SWAP1 SLOAD SWAP1 PUSH2 0x100 EXP SWAP1 DIV PUSH20 0xFFFFFFFFFFFFFFFFFFFFFFFFFFFFFFFFFFFFFFFF AND PUSH20 0xFFFFFFFFFFFFFFFFFFFFFFFFFFFFFFFFFFFFFFFF AND CALLER PUSH20 0xFFFFFFFFFFFFFFFFFFFFFFFFFFFFFFFFFFFFFFFF AND EQ PUSH2 0x205 JUMPI PUSH1 0x0 DUP1 REVERT JUMPDEST PUSH1 0x0 PUSH1 0x1 PUSH1 0x0 SWAP1 SLOAD SWAP1 PUSH2 0x100 EXP SWAP1 DIV PUSH20 0xFFFFFFFFFFFFFFFFFFFFFFFFFFFFFFFFFFFFFFFF AND PUSH20 0xFFFFFFFFFFFFFFFFFFFFFFFFFFFFFFFFFFFFFFFF AND ADDRESS PUSH1 0x7 SLOAD PUSH1 0x40 MLOAD PUSH1 0x24 ADD PUSH2 0x255 SWAP3 SWAP2 SWAP1 PUSH2 0x6E4 JUMP JUMPDEST PUSH1 0x40 MLOAD PUSH1 0x20 DUP2 DUP4 SUB SUB DUP2 MSTORE SWAP1 PUSH1 0x40 MSTORE PUSH32 0xA9059CBB00000000000000000000000000000000000000000000000000000000 PUSH28 0xFFFFFFFFFFFFFFFFFFFFFFFFFFFFFFFFFFFFFFFFFFFFFFFFFFFFFFFF NOT AND PUSH1 0x20 DUP3 ADD DUP1 MLOAD PUSH28 0xFFFFFFFFFFFFFFFFFFFFFFFFFFFFFFFFFFFFFFFFFFFFFFFFFFFFFFFF DUP4 DUP2 DUP4 AND OR DUP4 MSTORE POP POP POP POP PUSH1 0x40 MLOAD PUSH2 0x2DF SWAP2 SWAP1 PUSH2 0x6CD JUMP JUMPDEST PUSH1 0x0 PUSH1 0x40 MLOAD DUP1 DUP4 SUB DUP2 DUP6 GAS DELEGATECALL SWAP2 POP POP RETURNDATASIZE DUP1 PUSH1 0x0 DUP2 EQ PUSH2 0x31A JUMPI PUSH1 0x40 MLOAD SWAP2 POP PUSH1 0x1F NOT PUSH1 0x3F RETURNDATASIZE ADD AND DUP3 ADD PUSH1 0x40 MSTORE RETURNDATASIZE DUP3 MSTORE RETURNDATASIZE PUSH1 0x0 PUSH1 0x20 DUP5 ADD RETURNDATACOPY PUSH2 0x31F JUMP JUMPDEST PUSH1 0x60 SWAP2 POP JUMPDEST POP POP SWAP1 POP DUP1 PUSH2 0x363 JUMPI PUSH1 0x40 MLOAD PUSH32 0x8C379A000000000000000000000000000000000000000000000000000000000 DUP2 MSTORE PUSH1 0x4 ADD PUSH2 0x35A SWAP1 PUSH2 0x70D JUMP JUMPDEST PUSH1 0x40 MLOAD DUP1 SWAP2 SUB SWAP1 REVERT JUMPDEST POP JUMP JUMPDEST JUMP JUMPDEST PUSH1 0x8 PUSH1 0x0 SWAP1 SLOAD SWAP1 PUSH2 0x100 EXP SWAP1 DIV PUSH20 0xFFFFFFFFFFFFFFFFFFFFFFFFFFFFFFFFFFFFFFFF AND PUSH20 0xFFFFFFFFFFFFFFFFFFFFFFFFFFFFFFFFFFFFFFFF AND CALLER PUSH20 0xFFFFFFFFFFFFFFFFFFFFFFFFFFFFFFFFFFFFFFFF AND EQ PUSH2 0x3C2 JUMPI PUSH1 0x0 DUP1 REVERT JUMPDEST PUSH1 0x0 DUP1 DUP3 PUSH20 0xFFFFFFFFFFFFFFFFFFFFFFFFFFFFFFFFFFFFFFFF AND PUSH20 0xFFFFFFFFFFFFFFFFFFFFFFFFFFFFFFFFFFFFFFFF AND DUP2 MSTORE PUSH1 0x20 ADD SWAP1 DUP2 MSTORE PUSH1 0x20 ADD PUSH1 0x0 KECCAK256 PUSH1 0x0 DUP1 DUP3 ADD PUSH1 0x0 SWAP1 SSTORE PUSH1 0x1 DUP3 ADD PUSH1 0x0 SWAP1 SSTORE POP POP POP JUMP JUMPDEST PUSH1 0x8 PUSH1 0x0 SWAP1 SLOAD SWAP1 PUSH2 0x100 EXP SWAP1 DIV PUSH20 0xFFFFFFFFFFFFFFFFFFFFFFFFFFFFFFFFFFFFFFFF AND PUSH20 0xFFFFFFFFFFFFFFFFFFFFFFFFFFFFFFFFFFFFFFFF AND CALLER PUSH20 0xFFFFFFFFFFFFFFFFFFFFFFFFFFFFFFFFFFFFFFFF AND EQ PUSH2 0x470 JUMPI PUSH1 0x0 DUP1 REVERT JUMPDEST DUP1 PUSH1 0x0 DUP1 DUP5 PUSH20 0xFFFFFFFFFFFFFFFFFFFFFFFFFFFFFFFFFFFFFFFF AND PUSH20 0xFFFFFFFFFFFFFFFFFFFFFFFFFFFFFFFFFFFFFFFF AND DUP2 MSTORE PUSH1 0x20 ADD SWAP1 DUP2 MSTORE PUSH1 0x20 ADD PUSH1 0x0 KECCAK256 PUSH1 0x0 ADD DUP2 SWAP1 SSTORE POP PUSH1 0x0 DUP1 PUSH1 0x0 DUP5 PUSH20 0xFFFFFFFFFFFFFFFFFFFFFFFFFFFFFFFFFFFFFFFF AND PUSH20 0xFFFFFFFFFFFFFFFFFFFFFFFFFFFFFFFFFFFFFFFF AND DUP2 MSTORE PUSH1 0x20 ADD SWAP1 DUP2 MSTORE PUSH1 0x20 ADD PUSH1 0x0 KECCAK256 PUSH1 0x1 ADD DUP2 SWAP1 SSTORE POP POP POP JUMP JUMPDEST PUSH1 0x0 DUP2 CALLDATALOAD SWAP1 POP PUSH2 0x510 DUP2 PUSH2 0x9B1 JUMP JUMPDEST SWAP3 SWAP2 POP POP JUMP JUMPDEST PUSH1 0x0 PUSH1 0x40 DUP3 DUP5 SUB SLT ISZERO PUSH2 0x528 JUMPI PUSH1 0x0 DUP1 REVERT JUMPDEST PUSH2 0x532 PUSH1 0x40 PUSH2 0x748 JUMP JUMPDEST SWAP1 POP PUSH1 0x0 PUSH2 0x542 DUP5 DUP3 DUP6 ADD PUSH2 0x562 JUMP JUMPDEST PUSH1 0x0 DUP4 ADD MSTORE POP PUSH1 0x20 PUSH2 0x556 DUP5 DUP3 DUP6 ADD PUSH2 0x562 JUMP JUMPDEST PUSH1 0x20 DUP4 ADD MSTORE POP SWAP3 SWAP2 POP POP JUMP JUMPDEST PUSH1 0x0 DUP2 CALLDATALOAD SWAP1 POP PUSH2 0x571 DUP2 PUSH2 0x9C8 JUMP JUMPDEST SWAP3 SWAP2 POP POP JUMP JUMPDEST PUSH1 0x0 PUSH1 0x20 DUP3 DUP5 SUB SLT ISZERO PUSH2 0x589 JUMPI PUSH1 0x0 DUP1 REVERT JUMPDEST PUSH1 0x0 PUSH2 0x597 DUP5 DUP3 DUP6 ADD PUSH2 0x501 JUMP JUMPDEST SWAP2 POP POP SWAP3 SWAP2 POP POP JUMP JUMPDEST PUSH1 0x0 DUP1 PUSH1 0x40 DUP4 DUP6 SUB SLT ISZERO PUSH2 0x5B3 JUMPI PUSH1 0x0 DUP1 REVERT JUMPDEST PUSH1 0x0 PUSH2 0x5C1 DUP6 DUP3 DUP7 ADD PUSH2 0x501 JUMP JUMPDEST SWAP3 POP POP PUSH1 0x20 PUSH2 0x5D2 DUP6 DUP3 DUP7 ADD PUSH2 0x562 JUMP JUMPDEST SWAP2 POP POP SWAP3 POP SWAP3 SWAP1 POP JUMP JUMPDEST PUSH1 0x0 DUP1 PUSH1 0x60 DUP4 DUP6 SUB SLT ISZERO PUSH2 0x5EF JUMPI PUSH1 0x0 DUP1 REVERT JUMPDEST PUSH1 0x0 PUSH2 0x5FD DUP6 DUP3 DUP7 ADD PUSH2 0x562 JUMP JUMPDEST SWAP3 POP POP PUSH1 0x20 PUSH2 0x60E DUP6 DUP3 DUP7 ADD PUSH2 0x516 JUMP JUMPDEST SWAP2 POP POP SWAP3 POP SWAP3 SWAP1 POP JUMP JUMPDEST PUSH2 0x621 DUP2 PUSH2 0x8B5 JUMP JUMPDEST DUP3 MSTORE POP POP JUMP JUMPDEST PUSH1 0x0 PUSH2 0x632 DUP3 PUSH2 0x779 JUMP JUMPDEST PUSH2 0x63C DUP2 DUP6 PUSH2 0x784 JUMP JUMPDEST SWAP4 POP PUSH2 0x64C DUP2 DUP6 PUSH1 0x20 DUP7 ADD PUSH2 0x8F1 JUMP JUMPDEST DUP1 DUP5 ADD SWAP2 POP POP SWAP3 SWAP2 POP POP JUMP JUMPDEST PUSH1 0x0 PUSH2 0x665 PUSH1 0x24 DUP4 PUSH2 0x78F JUMP JUMPDEST SWAP2 POP PUSH32 0x44656C656761746543616C6C20696E2076657374696E6746756E642829206661 PUSH1 0x0 DUP4 ADD MSTORE PUSH32 0x696C656400000000000000000000000000000000000000000000000000000000 PUSH1 0x20 DUP4 ADD MSTORE PUSH1 0x40 DUP3 ADD SWAP1 POP SWAP2 SWAP1 POP JUMP JUMPDEST PUSH2 0x6C7 DUP2 PUSH2 0x8E7 JUMP JUMPDEST DUP3 MSTORE POP POP JUMP JUMPDEST PUSH1 0x0 PUSH2 0x6D9 DUP3 DUP5 PUSH2 0x627 JUMP JUMPDEST SWAP2 POP DUP2 SWAP1 POP SWAP3 SWAP2 POP POP JUMP JUMPDEST PUSH1 0x0 PUSH1 0x40 DUP3 ADD SWAP1 POP PUSH2 0x6F9 PUSH1 0x0 DUP4 ADD DUP6 PUSH2 0x618 JUMP JUMPDEST PUSH2 0x706 PUSH1 0x20 DUP4 ADD DUP5 PUSH2 0x6BE JUMP JUMPDEST SWAP4 SWAP3 POP POP POP JUMP JUMPDEST PUSH1 0x0 PUSH1 0x20 DUP3 ADD SWAP1 POP DUP2 DUP2 SUB PUSH1 0x0 DUP4 ADD MSTORE PUSH2 0x726 DUP2 PUSH2 0x658 JUMP JUMPDEST SWAP1 POP SWAP2 SWAP1 POP JUMP JUMPDEST PUSH1 0x0 PUSH1 0x20 DUP3 ADD SWAP1 POP PUSH2 0x742 PUSH1 0x0 DUP4 ADD DUP5 PUSH2 0x6BE JUMP JUMPDEST SWAP3 SWAP2 POP POP JUMP JUMPDEST PUSH1 0x0 PUSH1 0x40 MLOAD SWAP1 POP DUP2 DUP2 ADD DUP2 DUP2 LT PUSH8 0xFFFFFFFFFFFFFFFF DUP3 GT OR ISZERO PUSH2 0x76F JUMPI PUSH2 0x76E PUSH2 0x982 JUMP JUMPDEST JUMPDEST DUP1 PUSH1 0x40 MSTORE POP SWAP2 SWAP1 POP JUMP JUMPDEST PUSH1 0x0 DUP2 MLOAD SWAP1 POP SWAP2 SWAP1 POP JUMP JUMPDEST PUSH1 0x0 DUP2 SWAP1 POP SWAP3 SWAP2 POP POP JUMP JUMPDEST PUSH1 0x0 DUP3 DUP3 MSTORE PUSH1 0x20 DUP3 ADD SWAP1 POP SWAP3 SWAP2 POP POP JUMP JUMPDEST PUSH1 0x0 PUSH2 0x7AB DUP3 PUSH2 0x8E7 JUMP JUMPDEST SWAP2 POP PUSH2 0x7B6 DUP4 PUSH2 0x8E7 JUMP JUMPDEST SWAP3 POP DUP3 PUSH32 0xFFFFFFFFFFFFFFFFFFFFFFFFFFFFFFFFFFFFFFFFFFFFFFFFFFFFFFFFFFFFFFFF SUB DUP3 GT ISZERO PUSH2 0x7EB JUMPI PUSH2 0x7EA PUSH2 0x924 JUMP JUMPDEST JUMPDEST DUP3 DUP3 ADD SWAP1 POP SWAP3 SWAP2 POP POP JUMP JUMPDEST PUSH1 0x0 PUSH2 0x801 DUP3 PUSH2 0x8E7 JUMP JUMPDEST SWAP2 POP PUSH2 0x80C DUP4 PUSH2 0x8E7 JUMP JUMPDEST SWAP3 POP DUP3 PUSH2 0x81C JUMPI PUSH2 0x81B PUSH2 0x953 JUMP JUMPDEST JUMPDEST DUP3 DUP3 DIV SWAP1 POP SWAP3 SWAP2 POP POP JUMP JUMPDEST PUSH1 0x0 PUSH2 0x832 DUP3 PUSH2 0x8E7 JUMP JUMPDEST SWAP2 POP PUSH2 0x83D DUP4 PUSH2 0x8E7 JUMP JUMPDEST SWAP3 POP DUP2 PUSH32 0xFFFFFFFFFFFFFFFFFFFFFFFFFFFFFFFFFFFFFFFFFFFFFFFFFFFFFFFFFFFFFFFF DIV DUP4 GT DUP3 ISZERO ISZERO AND ISZERO PUSH2 0x876 JUMPI PUSH2 0x875 PUSH2 0x924 JUMP JUMPDEST JUMPDEST DUP3 DUP3 MUL SWAP1 POP SWAP3 SWAP2 POP POP JUMP JUMPDEST PUSH1 0x0 PUSH2 0x88C DUP3 PUSH2 0x8E7 JUMP JUMPDEST SWAP2 POP PUSH2 0x897 DUP4 PUSH2 0x8E7 JUMP JUMPDEST SWAP3 POP DUP3 DUP3 LT ISZERO PUSH2 0x8AA JUMPI PUSH2 0x8A9 PUSH2 0x924 JUMP JUMPDEST JUMPDEST DUP3 DUP3 SUB SWAP1 POP SWAP3 SWAP2 POP POP JUMP JUMPDEST PUSH1 0x0 PUSH2 0x8C0 DUP3 PUSH2 0x8C7 JUMP JUMPDEST SWAP1 POP SWAP2 SWAP1 POP JUMP JUMPDEST PUSH1 0x0 PUSH20 0xFFFFFFFFFFFFFFFFFFFFFFFFFFFFFFFFFFFFFFFF DUP3 AND SWAP1 POP SWAP2 SWAP1 POP JUMP JUMPDEST PUSH1 0x0 DUP2 SWAP1 POP SWAP2 SWAP1 POP JUMP JUMPDEST PUSH1 0x0 JUMPDEST DUP4 DUP2 LT ISZERO PUSH2 0x90F JUMPI DUP1 DUP3 ADD MLOAD DUP2 DUP5 ADD MSTORE PUSH1 0x20 DUP2 ADD SWAP1 POP PUSH2 0x8F4 JUMP JUMPDEST DUP4 DUP2 GT ISZERO PUSH2 0x91E JUMPI PUSH1 0x0 DUP5 DUP5 ADD MSTORE JUMPDEST POP POP POP POP JUMP JUMPDEST PUSH32 0x4E487B7100000000000000000000000000000000000000000000000000000000 PUSH1 0x0 MSTORE PUSH1 0x11 PUSH1 0x4 MSTORE PUSH1 0x24 PUSH1 0x0 REVERT JUMPDEST PUSH32 0x4E487B7100000000000000000000000000000000000000000000000000000000 PUSH1 0x0 MSTORE PUSH1 0x12 PUSH1 0x4 MSTORE PUSH1 0x24 PUSH1 0x0 REVERT JUMPDEST PUSH32 0x4E487B7100000000000000000000000000000000000000000000000000000000 PUSH1 0x0 MSTORE PUSH1 0x41 PUSH1 0x4 MSTORE PUSH1 0x24 PUSH1 0x0 REVERT JUMPDEST PUSH2 0x9BA DUP2 PUSH2 0x8B5 JUMP JUMPDEST DUP2 EQ PUSH2 0x9C5 JUMPI PUSH1 0x0 DUP1 REVERT JUMPDEST POP JUMP JUMPDEST PUSH2 0x9D1 DUP2 PUSH2 0x8E7 JUMP JUMPDEST DUP2 EQ PUSH2 0x9DC JUMPI PUSH1 0x0 DUP1 REVERT JUMPDEST POP JUMP INVALID LOG2 PUSH5 0x6970667358 0x22 SLT KECCAK256 0xE7 JUMP SWAP14 0xC2 0x4F 0xAC 0x27 0xDD PUSH16 0x11E74D4FF70AF213404BC64A670640E7 PUSH14 0x8AD7369B851264736F6C63430008 STOP STOP CALLER "
        },
        "methodIdentifiers": {
          "addUserToWhitelist(address,uint256)": "fc0f349b",
          "claimToken()": "4451d89f",
          "currentClaimableAmount(uint256,(uint256,uint256))": "0acecda5",
          "removeUserFromWhitelist(address)": "f9902bb1",
          "vestingFund()": "0b7459eb"
        }
      }
    }
  }
}