{
  "_format": "hh-sol-artifact-1",
  "contractName": "Vesting",
  "sourceName": "contracts/Vesting.sol",
  "abi": [
    {
      "inputs": [
        {
          "internalType": "address",
          "name": "_token",
          "type": "address"
        },
        {
          "internalType": "uint256",
          "name": "_firstRelease",
          "type": "uint256"
        },
        {
          "internalType": "uint256",
          "name": "_startTime",
          "type": "uint256"
        },
        {
          "internalType": "uint256",
          "name": "_totalPeriod",
          "type": "uint256"
        },
        {
          "internalType": "uint256",
          "name": "_timePerPeriod",
          "type": "uint256"
        },
        {
          "internalType": "uint256",
          "name": "_cliff",
          "type": "uint256"
        },
        {
          "internalType": "uint256",
          "name": "_totalTokens",
          "type": "uint256"
        },
        {
          "internalType": "address",
          "name": "_admin",
          "type": "address"
        }
      ],
      "stateMutability": "nonpayable",
      "type": "constructor"
    },
    {
      "inputs": [
        {
          "internalType": "address",
          "name": "user",
          "type": "address"
        },
        {
          "internalType": "uint256",
          "name": "amount",
          "type": "uint256"
        }
      ],
      "name": "addUserToWhitelist",
      "outputs": [],
      "stateMutability": "nonpayable",
      "type": "function"
    },
    {
      "inputs": [],
      "name": "claimToken",
      "outputs": [],
      "stateMutability": "nonpayable",
      "type": "function"
    },
    {
      "inputs": [
        {
          "internalType": "uint256",
          "name": "currentTime",
          "type": "uint256"
        },
        {
          "components": [
            {
              "internalType": "uint256",
              "name": "amount",
              "type": "uint256"
            },
            {
              "internalType": "uint256",
              "name": "tokenClaimed",
              "type": "uint256"
            }
          ],
          "internalType": "struct Vesting.UserInfo",
          "name": "user",
          "type": "tuple"
        }
      ],
      "name": "currentClaimableAmount",
      "outputs": [
        {
          "internalType": "uint256",
          "name": "",
          "type": "uint256"
        }
      ],
      "stateMutability": "view",
      "type": "function"
    },
    {
      "inputs": [
        {
          "internalType": "address",
          "name": "user",
          "type": "address"
        }
      ],
      "name": "getUserAmount",
      "outputs": [
        {
          "internalType": "uint256",
          "name": "",
          "type": "uint256"
        }
      ],
      "stateMutability": "view",
      "type": "function"
    },
    {
      "inputs": [
        {
          "internalType": "address",
          "name": "user",
          "type": "address"
        }
      ],
      "name": "getUserTokenClaimed",
      "outputs": [
        {
          "internalType": "uint256",
          "name": "",
          "type": "uint256"
        }
      ],
      "stateMutability": "view",
      "type": "function"
    },
    {
      "inputs": [
        {
          "internalType": "address",
          "name": "user",
          "type": "address"
        }
      ],
      "name": "removeUserFromWhitelist",
      "outputs": [],
      "stateMutability": "nonpayable",
      "type": "function"
    }
  ],
  "bytecode": "0x60806040523480156200001157600080fd5b5060405162000d5e38038062000d5e83398181016040528101906200003791906200011f565b87600160006101000a81548173ffffffffffffffffffffffffffffffffffffffff021916908373ffffffffffffffffffffffffffffffffffffffff16021790555086600281905550856003819055508460048190555083600581905550826006819055508160078190555080600860006101000a81548173ffffffffffffffffffffffffffffffffffffffff021916908373ffffffffffffffffffffffffffffffffffffffff160217905550505050505050505062000254565b600081519050620001028162000220565b92915050565b60008151905062000119816200023a565b92915050565b600080600080600080600080610100898b0312156200013d57600080fd5b60006200014d8b828c01620000f1565b9850506020620001608b828c0162000108565b9750506040620001738b828c0162000108565b9650506060620001868b828c0162000108565b9550506080620001998b828c0162000108565b94505060a0620001ac8b828c0162000108565b93505060c0620001bf8b828c0162000108565b92505060e0620001d28b828c01620000f1565b9150509295985092959890939650565b6000620001ef82620001f6565b9050919050565b600073ffffffffffffffffffffffffffffffffffffffff82169050919050565b6000819050919050565b6200022b81620001e2565b81146200023757600080fd5b50565b620002458162000216565b81146200025157600080fd5b50565b610afa80620002646000396000f3fe608060405234801561001057600080fd5b50600436106100625760003560e01c80630acecda514610067578063327a943a146100975780634451d89f146100c757806377ae87fb146100d1578063f9902bb114610101578063fc0f349b1461011d575b600080fd5b610081600480360381019061007c91906107c6565b610139565b60405161008e9190610849565b60405180910390f35b6100b160048036038101906100ac9190610738565b61024f565b6040516100be9190610849565b60405180910390f35b6100cf6102f4565b005b6100eb60048036038101906100e69190610738565b61046f565b6040516100f89190610849565b60405180910390f35b61011b60048036038101906101169190610738565b610514565b005b61013760048036038101906101329190610761565b6105c2565b005b60008060035484101561014f5760009050610245565b6000806002546064866000015161016691906108eb565b610170919061091c565b90506006546003546101829190610895565b86101561019157809150610230565b6004546005546101a1919061091c565b6006546003546101b19190610895565b876101bc9190610976565b106101cd578460000151915061022f565b60006005546006546003546101e29190610895565b886101ed9190610976565b6101f791906108eb565b90506001816102069190610895565b8287600001516102169190610976565b610220919061091c565b8261022b9190610895565b9250505b5b8460200151826102409190610976565b925050505b8091505092915050565b6000600860009054906101000a900473ffffffffffffffffffffffffffffffffffffffff1673ffffffffffffffffffffffffffffffffffffffff163373ffffffffffffffffffffffffffffffffffffffff16146102ab57600080fd5b6000808373ffffffffffffffffffffffffffffffffffffffff1673ffffffffffffffffffffffffffffffffffffffff168152602001908152602001600020600001549050919050565b60003390506000610361426000808573ffffffffffffffffffffffffffffffffffffffff1673ffffffffffffffffffffffffffffffffffffffff16815260200190815260200160002060405180604001604052908160008201548152602001600182015481525050610139565b9050600160009054906101000a900473ffffffffffffffffffffffffffffffffffffffff1673ffffffffffffffffffffffffffffffffffffffff1663a9059cbb83836040518363ffffffff1660e01b81526004016103c0929190610820565b602060405180830381600087803b1580156103da57600080fd5b505af11580156103ee573d6000803e3d6000fd5b505050506040513d601f19601f82011682018060405250810190610412919061079d565b50806000808473ffffffffffffffffffffffffffffffffffffffff1673ffffffffffffffffffffffffffffffffffffffff16815260200190815260200160002060010160008282546104649190610895565b925050819055505050565b6000600860009054906101000a900473ffffffffffffffffffffffffffffffffffffffff1673ffffffffffffffffffffffffffffffffffffffff163373ffffffffffffffffffffffffffffffffffffffff16146104cb57600080fd5b6000808373ffffffffffffffffffffffffffffffffffffffff1673ffffffffffffffffffffffffffffffffffffffff168152602001908152602001600020600101549050919050565b600860009054906101000a900473ffffffffffffffffffffffffffffffffffffffff1673ffffffffffffffffffffffffffffffffffffffff163373ffffffffffffffffffffffffffffffffffffffff161461056e57600080fd5b6000808273ffffffffffffffffffffffffffffffffffffffff1673ffffffffffffffffffffffffffffffffffffffff1681526020019081526020016000206000808201600090556001820160009055505050565b600860009054906101000a900473ffffffffffffffffffffffffffffffffffffffff1673ffffffffffffffffffffffffffffffffffffffff163373ffffffffffffffffffffffffffffffffffffffff161461061c57600080fd5b806000808473ffffffffffffffffffffffffffffffffffffffff1673ffffffffffffffffffffffffffffffffffffffff1681526020019081526020016000206000018190555060008060008473ffffffffffffffffffffffffffffffffffffffff1673ffffffffffffffffffffffffffffffffffffffff168152602001908152602001600020600101819055505050565b6000813590506106bc81610a7f565b92915050565b6000815190506106d181610a96565b92915050565b6000604082840312156106e957600080fd5b6106f36040610864565b9050600061070384828501610723565b600083015250602061071784828501610723565b60208301525092915050565b60008135905061073281610aad565b92915050565b60006020828403121561074a57600080fd5b6000610758848285016106ad565b91505092915050565b6000806040838503121561077457600080fd5b6000610782858286016106ad565b925050602061079385828601610723565b9150509250929050565b6000602082840312156107af57600080fd5b60006107bd848285016106c2565b91505092915050565b600080606083850312156107d957600080fd5b60006107e785828601610723565b92505060206107f8858286016106d7565b9150509250929050565b61080b816109aa565b82525050565b61081a816109e8565b82525050565b60006040820190506108356000830185610802565b6108426020830184610811565b9392505050565b600060208201905061085e6000830184610811565b92915050565b6000604051905081810181811067ffffffffffffffff8211171561088b5761088a610a50565b5b8060405250919050565b60006108a0826109e8565b91506108ab836109e8565b9250827fffffffffffffffffffffffffffffffffffffffffffffffffffffffffffffffff038211156108e0576108df6109f2565b5b828201905092915050565b60006108f6826109e8565b9150610901836109e8565b92508261091157610910610a21565b5b828204905092915050565b6000610927826109e8565b9150610932836109e8565b9250817fffffffffffffffffffffffffffffffffffffffffffffffffffffffffffffffff048311821515161561096b5761096a6109f2565b5b828202905092915050565b6000610981826109e8565b915061098c836109e8565b92508282101561099f5761099e6109f2565b5b828203905092915050565b60006109b5826109c8565b9050919050565b60008115159050919050565b600073ffffffffffffffffffffffffffffffffffffffff82169050919050565b6000819050919050565b7f4e487b7100000000000000000000000000000000000000000000000000000000600052601160045260246000fd5b7f4e487b7100000000000000000000000000000000000000000000000000000000600052601260045260246000fd5b7f4e487b7100000000000000000000000000000000000000000000000000000000600052604160045260246000fd5b610a88816109aa565b8114610a9357600080fd5b50565b610a9f816109bc565b8114610aaa57600080fd5b50565b610ab6816109e8565b8114610ac157600080fd5b5056fea264697066735822122064af7b2b187ef344b53340c4816ac164e0a9922159f95cb8e9e02aace952b3dd64736f6c63430008000033",
  "linkReferences": {},
  "deployedLinkReferences": {}
}