{
  "_format": "hh-sol-artifact-1",
  "contractName": "Vesting",
  "sourceName": "contracts/Vesting.sol",
  "abi": [
    {
      "inputs": [
        {
          "internalType": "address",
          "name": "_token",
          "type": "address"
        },
        {
          "internalType": "uint256",
          "name": "_firstRelease",
          "type": "uint256"
        },
        {
          "internalType": "uint256",
          "name": "_startTime",
          "type": "uint256"
        },
        {
          "internalType": "uint256",
          "name": "_totalPeriod",
          "type": "uint256"
        },
        {
          "internalType": "uint256",
          "name": "_timePerPeriod",
          "type": "uint256"
        },
        {
          "internalType": "uint256",
          "name": "_cliff",
          "type": "uint256"
        },
        {
          "internalType": "uint256",
          "name": "_totalTokens",
          "type": "uint256"
        },
        {
          "internalType": "address",
          "name": "_admin",
          "type": "address"
        }
      ],
      "stateMutability": "nonpayable",
      "type": "constructor"
    },
    {
      "inputs": [
        {
          "internalType": "address",
          "name": "user",
          "type": "address"
        },
        {
          "internalType": "uint256",
          "name": "amount",
          "type": "uint256"
        }
      ],
      "name": "addUserToWhitelist",
      "outputs": [],
      "stateMutability": "nonpayable",
      "type": "function"
    },
    {
      "inputs": [],
      "name": "claimToken",
      "outputs": [],
      "stateMutability": "nonpayable",
      "type": "function"
    },
    {
      "inputs": [
        {
          "internalType": "uint256",
          "name": "currentTime",
          "type": "uint256"
        },
        {
          "components": [
            {
              "internalType": "uint256",
              "name": "amount",
              "type": "uint256"
            },
            {
              "internalType": "uint256",
              "name": "tokenClaimed",
              "type": "uint256"
            }
          ],
          "internalType": "struct Vesting.UserInfo",
          "name": "user",
          "type": "tuple"
        }
      ],
      "name": "currentClaimableAmount",
      "outputs": [
        {
          "internalType": "uint256",
          "name": "",
          "type": "uint256"
        }
      ],
      "stateMutability": "view",
      "type": "function"
    },
    {
      "inputs": [
        {
          "internalType": "address",
          "name": "user",
          "type": "address"
        }
      ],
      "name": "getUserAmount",
      "outputs": [
        {
          "internalType": "uint256",
          "name": "",
          "type": "uint256"
        }
      ],
      "stateMutability": "view",
      "type": "function"
    },
    {
      "inputs": [
        {
          "internalType": "address",
          "name": "user",
          "type": "address"
        }
      ],
      "name": "getUserTokenClaimed",
      "outputs": [
        {
          "internalType": "uint256",
          "name": "",
          "type": "uint256"
        }
      ],
      "stateMutability": "view",
      "type": "function"
    },
    {
      "inputs": [
        {
          "internalType": "address",
          "name": "user",
          "type": "address"
        }
      ],
      "name": "removeUserFromWhitelist",
      "outputs": [],
      "stateMutability": "nonpayable",
      "type": "function"
    }
  ],
  "bytecode": "0x60806040523480156200001157600080fd5b5060405162000d6b38038062000d6b83398181016040528101906200003791906200011f565b87600160006101000a81548173ffffffffffffffffffffffffffffffffffffffff021916908373ffffffffffffffffffffffffffffffffffffffff16021790555086600281905550856003819055508460048190555083600581905550826006819055508160078190555080600860006101000a81548173ffffffffffffffffffffffffffffffffffffffff021916908373ffffffffffffffffffffffffffffffffffffffff160217905550505050505050505062000254565b600081519050620001028162000220565b92915050565b60008151905062000119816200023a565b92915050565b600080600080600080600080610100898b0312156200013d57600080fd5b60006200014d8b828c01620000f1565b9850506020620001608b828c0162000108565b9750506040620001738b828c0162000108565b9650506060620001868b828c0162000108565b9550506080620001998b828c0162000108565b94505060a0620001ac8b828c0162000108565b93505060c0620001bf8b828c0162000108565b92505060e0620001d28b828c01620000f1565b9150509295985092959890939650565b6000620001ef82620001f6565b9050919050565b600073ffffffffffffffffffffffffffffffffffffffff82169050919050565b6000819050919050565b6200022b81620001e2565b81146200023757600080fd5b50565b620002458162000216565b81146200025157600080fd5b50565b610b0780620002646000396000f3fe608060405234801561001057600080fd5b50600436106100625760003560e01c80630acecda514610067578063327a943a146100975780634451d89f146100c757806377ae87fb146100d1578063f9902bb114610101578063fc0f349b1461011d575b600080fd5b610081600480360381019061007c91906107d3565b610139565b60405161008e9190610856565b60405180910390f35b6100b160048036038101906100ac9190610745565b61025c565b6040516100be9190610856565b60405180910390f35b6100cf610301565b005b6100eb60048036038101906100e69190610745565b61047c565b6040516100f89190610856565b60405180910390f35b61011b60048036038101906101169190610745565b610521565b005b6101376004803603810190610132919061076e565b6105cf565b005b60008060035484101561014f5760009050610252565b6000806002546064866000015161016691906108f8565b6101709190610929565b905060065460035461018291906108a2565b8610156101915780915061023d565b6004546005546101a19190610929565b6006546003546101b191906108a2565b876101bc9190610983565b106101cd578460000151915061023c565b60006005546006546003546101e291906108a2565b886101ed9190610983565b6101f791906108f8565b905060045460018261020991906108a2565b8388600001516102199190610983565b6102239190610929565b61022d91906108f8565b8261023891906108a2565b9250505b5b84602001518261024d9190610983565b925050505b8091505092915050565b6000600860009054906101000a900473ffffffffffffffffffffffffffffffffffffffff1673ffffffffffffffffffffffffffffffffffffffff163373ffffffffffffffffffffffffffffffffffffffff16146102b857600080fd5b6000808373ffffffffffffffffffffffffffffffffffffffff1673ffffffffffffffffffffffffffffffffffffffff168152602001908152602001600020600001549050919050565b6000339050600061036e426000808573ffffffffffffffffffffffffffffffffffffffff1673ffffffffffffffffffffffffffffffffffffffff16815260200190815260200160002060405180604001604052908160008201548152602001600182015481525050610139565b9050600160009054906101000a900473ffffffffffffffffffffffffffffffffffffffff1673ffffffffffffffffffffffffffffffffffffffff1663a9059cbb83836040518363ffffffff1660e01b81526004016103cd92919061082d565b602060405180830381600087803b1580156103e757600080fd5b505af11580156103fb573d6000803e3d6000fd5b505050506040513d601f19601f8201168201806040525081019061041f91906107aa565b50806000808473ffffffffffffffffffffffffffffffffffffffff1673ffffffffffffffffffffffffffffffffffffffff168152602001908152602001600020600101600082825461047191906108a2565b925050819055505050565b6000600860009054906101000a900473ffffffffffffffffffffffffffffffffffffffff1673ffffffffffffffffffffffffffffffffffffffff163373ffffffffffffffffffffffffffffffffffffffff16146104d857600080fd5b6000808373ffffffffffffffffffffffffffffffffffffffff1673ffffffffffffffffffffffffffffffffffffffff168152602001908152602001600020600101549050919050565b600860009054906101000a900473ffffffffffffffffffffffffffffffffffffffff1673ffffffffffffffffffffffffffffffffffffffff163373ffffffffffffffffffffffffffffffffffffffff161461057b57600080fd5b6000808273ffffffffffffffffffffffffffffffffffffffff1673ffffffffffffffffffffffffffffffffffffffff1681526020019081526020016000206000808201600090556001820160009055505050565b600860009054906101000a900473ffffffffffffffffffffffffffffffffffffffff1673ffffffffffffffffffffffffffffffffffffffff163373ffffffffffffffffffffffffffffffffffffffff161461062957600080fd5b806000808473ffffffffffffffffffffffffffffffffffffffff1673ffffffffffffffffffffffffffffffffffffffff1681526020019081526020016000206000018190555060008060008473ffffffffffffffffffffffffffffffffffffffff1673ffffffffffffffffffffffffffffffffffffffff168152602001908152602001600020600101819055505050565b6000813590506106c981610a8c565b92915050565b6000815190506106de81610aa3565b92915050565b6000604082840312156106f657600080fd5b6107006040610871565b9050600061071084828501610730565b600083015250602061072484828501610730565b60208301525092915050565b60008135905061073f81610aba565b92915050565b60006020828403121561075757600080fd5b6000610765848285016106ba565b91505092915050565b6000806040838503121561078157600080fd5b600061078f858286016106ba565b92505060206107a085828601610730565b9150509250929050565b6000602082840312156107bc57600080fd5b60006107ca848285016106cf565b91505092915050565b600080606083850312156107e657600080fd5b60006107f485828601610730565b9250506020610805858286016106e4565b9150509250929050565b610818816109b7565b82525050565b610827816109f5565b82525050565b6000604082019050610842600083018561080f565b61084f602083018461081e565b9392505050565b600060208201905061086b600083018461081e565b92915050565b6000604051905081810181811067ffffffffffffffff8211171561089857610897610a5d565b5b8060405250919050565b60006108ad826109f5565b91506108b8836109f5565b9250827fffffffffffffffffffffffffffffffffffffffffffffffffffffffffffffffff038211156108ed576108ec6109ff565b5b828201905092915050565b6000610903826109f5565b915061090e836109f5565b92508261091e5761091d610a2e565b5b828204905092915050565b6000610934826109f5565b915061093f836109f5565b9250817fffffffffffffffffffffffffffffffffffffffffffffffffffffffffffffffff0483118215151615610978576109776109ff565b5b828202905092915050565b600061098e826109f5565b9150610999836109f5565b9250828210156109ac576109ab6109ff565b5b828203905092915050565b60006109c2826109d5565b9050919050565b60008115159050919050565b600073ffffffffffffffffffffffffffffffffffffffff82169050919050565b6000819050919050565b7f4e487b7100000000000000000000000000000000000000000000000000000000600052601160045260246000fd5b7f4e487b7100000000000000000000000000000000000000000000000000000000600052601260045260246000fd5b7f4e487b7100000000000000000000000000000000000000000000000000000000600052604160045260246000fd5b610a95816109b7565b8114610aa057600080fd5b50565b610aac816109c9565b8114610ab757600080fd5b50565b610ac3816109f5565b8114610ace57600080fd5b5056fea26469706673582212201c3c99eaea43b0477e5c0baeb023d8a68770256a1b764f1c17282f03d2a8aff564736f6c63430008000033",
  "linkReferences": {},
  "deployedLinkReferences": {}
}